{
  "contractName": "SendTransactionContract",
  "abi": [
    {
      "constant": true,
      "inputs": [],
      "name": "getData",
      "outputs": [
        {
          "internalType": "uint256",
          "name": "",
          "type": "uint256"
        }
      ],
      "payable": false,
      "stateMutability": "view",
      "type": "function"
    },
    {
      "constant": false,
      "inputs": [
        {
          "internalType": "uint256",
          "name": "_data",
          "type": "uint256"
        }
      ],
      "name": "setData",
      "outputs": [],
      "payable": false,
      "stateMutability": "nonpayable",
      "type": "function"
    }
  ],
  "bytecode": "0x608060405234801561001057600080fd5b5060c68061001f6000396000f3fe6080604052348015600f57600080fd5b506004361060325760003560e01c80633bc5de301460375780635b4b73a9146053575b600080fd5b603d607e565b6040518082815260200191505060405180910390f35b607c60048036036020811015606757600080fd5b81019080803590602001909291905050506087565b005b60008054905090565b806000819055505056fea265627a7a72315820732b3422992f0190eb66bde3a946ab070b2b473012e1c7557dbf8def71551d3164736f6c63430005100032",
  "source": "pragma solidity ^0.5.0;\n\ncontract SendTransactionContract {\n    uint data;\n\n    function getData() external view returns(uint) {\n        return data;\n    }\n\n    function setData(uint _data) external {\n        data = _data;\n    }\n\n    function setDataPrivate(uint _data) private {\n        data = _data + 10;\n    }\n}",
  "sourcePath": "/Users/sebastianmarquardt/Documents/webthree/eth-todo-list/contracts/SendTransactionContract.sol",
  "compiler": {
    "name": "solc",
    "version": "0.5.16+commit.9c3226ce.Emscripten.clang"
  },
  "schemaVersion": "3.3.2",
  "updatedAt": "2020-12-29T10:16:36.098Z",
  "networkType": "ethereum",
  "devdoc": {
    "methods": {}
  },
  "userdoc": {
    "methods": {}
  }
}