{
  "contractName": "TodoList",
  "abi": [
    {
      "constant": true,
      "inputs": [],
      "name": "dueDate",
      "outputs": [
        {
          "internalType": "uint256",
          "name": "",
          "type": "uint256"
        }
      ],
      "payable": false,
      "stateMutability": "view",
      "type": "function"
    },
    {
      "constant": true,
      "inputs": [],
      "name": "taskCount",
      "outputs": [
        {
          "internalType": "uint256",
          "name": "",
          "type": "uint256"
        }
      ],
      "payable": false,
      "stateMutability": "view",
      "type": "function"
    }
  ],
  "bytecode": "0x60806040526002600055600560015534801561001a57600080fd5b5060b0806100296000396000f3fe6080604052348015600f57600080fd5b506004361060325760003560e01c8063786716fe146037578063b6cb58a5146053575b600080fd5b603d606f565b6040518082815260200191505060405180910390f35b60596075565b6040518082815260200191505060405180910390f35b60015481565b6000548156fea265627a7a7231582041090905f67992d48ff3ed528913c3845c516e3de85ec896b82ee92df4e8fe4664736f6c63430005100032",
  "source": "// SPDX-License-Identifier: GPL-3.0\npragma solidity ^0.5.0;\n\ncontract TodoList {\n    // code goes here\n    //\n    uint public taskCount = 2;\n    uint public dueDate = 5;\n}",
  "sourcePath": "/Users/sebastianmarquardt/Documents/webthree/eth-todo-list/contracts/TodoList.sol",
  "compiler": {
    "name": "solc",
    "version": "0.5.16+commit.9c3226ce.Emscripten.clang"
  },
  "schemaVersion": "3.3.2",
  "updatedAt": "2020-12-13T19:29:00.220Z",
  "networkType": "ethereum",
  "devdoc": {
    "methods": {}
  },
  "userdoc": {
    "methods": {}
  }
}